:100000000C94A4040C94CC040C94CC040C94CC0458
:100010000C94CC040C94CC040C94CC040C94441597
:100020000C94CC040C94CC040C94CC040C94CC0410
:100030000C94CC040C9460160C94CC040C94CC045A
:100040000C9416160C94CC040C948E140C94681416
:100050000C94CC040C94CC040C94CC040C94CC04E0
:100060000C94CC040C94CC040B2B2C2B472B642B22
:10007000812B9A2BAB2BB82BD92BF22B18064606CB
:100080006C069806BC06DF06F306280756078407A9
:100090008D0D150E390E460E4A0E530E5B0E5F0E79
:1000A000680E740E8A0D840DC410D910E910F91071
:1000B0000E111D112C119D11A611AF11B811C111F6
:1000C000CA11D311DC11E511EE11F71100122A1C2F
:1000D0002A1C2A1CF21CF21C521C671C7E1C8B1C46
:1000E000991CB41CF21CF21CF21CDA1C05A84CCDA5
:1000F000B2D44EB93836A9020C50B9918688083C62
:10010000A6AAAA2ABE000000803F53746172742020
:100110006F6620576174636800202020486F7572F5
:100120003A2020204D696E7574653A202020446184
:10013000793A00414C41524D0020202020202020BF
:1001400053455454494E475300636C6F636B2066AC
:10015000616365203300636C6F636B206661636568
:10016000203200636C6F636B206661636520310031
:100170004175746F6D617469630020202044697358
:10018000706C61796D6F6465203A202020202020FA
:100190002020202020202000202020446973706C23
:1001A00061796D6F6465202020203A202020202076
:1001B0002020202000416C61726D204F4E00416C68
:1001C00061726D204F464600762020202020202D91
:1001D000202020202020202B2020202020206F6B7A
:1001E0000020417574686F723A204F2E43524F4978
:1001F0005345542032303137205265763A322E370B
:100200002E30002020204C4452204461726B20206C
:10021000203A202020202020202020002020204CB8
:10022000445220427269676874203A2020202020BE
:1002300020202020002020204272696768746E65AB
:100240007373203A202020202020202020004241CB
:10025000434B4C49474854002020204D696E75742B
:10026000652020202020203A20202020202020202F
:100270002000202020486F75722020202020202080
:10028000203A202020202020202020002020204450
:1002900061746520202020202020203A202020206A
:1002A000202020202000202020446179206F66201B
:1002B0007765656B203A2020202020202020200018
:1002C0002020204D6F6E7468202020202020203AAE
:1002D000202020202020202020002020205965617F
:1002E0007220202020202020203A202020202020A2
:1002F0002020200054494D4500202020596561727E
:1003000020202020202020203A20202020202020D3
:1003100020200000000000240027002A0000000028
:100320000023002600290000000008000201000050
:100330000304070000000000000000025F00030249
:100340000404040505090F00FD0AFD0BFF019403D9
:100350003C200500C8332108B10C330E910022085F
:10036000347B33225300230E861973A29661895A77
:1003700086256A012414B7F9F2C2418922294CD298
:10038000350923A9328819002511A7097342254A86
:100390004AAD711AB5941231012612A70973C42807
:1003A0008BB228543529A94595480B2706317C3353
:1003B00006280CC3FBB29228897A8BB200290CC3A1
:1003C000FB32B2288B7A8992082A0D7739F34A9545
:1003D000B62D69AA65002B0B7719F3E2DA30647148
:1003E0000D2C0952DC32862451002D071749330E9B
:1003F000012E07220C3386002F0CA709B3D3382D0A
:10040000A7E53406300DA709B3B64AEA6B92651327
:1004100000310DA709F35231C9A2B8B76108320CF7
:10042000A70973062555FB791802330FA709330E68
:10043000715ADD8138569341013411A70973533144
:10044000C9A25A1226C390C61500350FA709330E4C
:10045000726548C4B8AC2683023610A709B3862853
:100460008D2B4322AAD6645000370EA709330E7194
:100470001AA7711AA771083811A709B3B64A9A6466
:10048000D95649D524CB2600390FA70973062575FF
:10049000548624AE4643043A08720C338678083BEF
:1004A0000AA2DC3286784812053C09A50A33B38ECD
:1004B00069073D094729330E39E1103E0AA50A3381
:1004C000D28E5947003F0EA70973062555E3B4396C
:1004D0008733004012A709730625350D4AA64493B9
:1004E00022E7C0A000410DA709F3D224ABA4D6E1B6
:1004F0006A0D4212A7093306294C523119A430491A
:100500008DC92001430DA70973062595FB9A0C0A96
:1005100000440DA7093306294C523F268304450D9C
:10052000A709330E727990E2E66108460CA70933F9
:100530000E727990E2CE00470FA70973062595DB6E
:1005400086D49A0C0A00480AA7093352D7E1EA3543
:10055000490AA50A330629ECA7414A14A809F3065B
:10056000350772200772200772200AB321034B114E
:10057000A709335231C9A2DA988451560A93344CF0
:100580000AA70933E2FE3C0C014D10A7093352754E
:100590005B2A4A458AA448B5064E0FA7093352750F
:1005A000543229D21271B5064F0CA709730625F5EE
:1005B000D7645000500DA709332EA9751892B8338F
:1005C00000510FC7E9720625F54B2655063507047D
:1005D0005210A709332EA9751892282B8549AA060F
:1005E0005311A709730625B5033BA003AA9A0C0A69
:1005F00000540AA709330E59DCDF00550BA7093355
:1006000052FF9A0C0A005611A70933526B924559B2
:100610009455C2244CD20C5710A70933524F911451
:1006200049911429DD12005810A709335235C92AFF
:10063000699C2659255503590DA709335235C92AF6
:1006400069DC1B005A0CA709330E71DAE77818022F
:100650005B0AC4FB3206AD7F1B025C11A709337233
:1006600020CE811C88732007E21C085D0AC4FA3280
:1006700086AC7F1B045E0A4769F3D224ABA4015FFA
:100680000718F8320E026007338B33B202610F771E
:100690000973061D8893614845654802620FA709E2
:1006A00033E296211155EBA80C0900630C7709730E
:1006B0000625955B934101640DA709B35B86445CF5
:1006C0001D952109650E77097306255587730E0C54
:1006D0000A00660EA709F3B65216C5E120C68D00C2
:1006E0006714A7D97286444CC2248C862807062535
:1006F00055934101680CA70933E296211155AF01CA
:10070000690AA50A737474EC69106A0DD6D932753A
:10071000CADA55342643026B0FA70933E2564D4916
:100720003435D132250D6C09A50A33C6FE34086D67
:100730001077093316258AA4488AA4488AD4006E03
:100740000B77093392211155AF016F0C77097306AE
:1007500025F59A0C0A00700FA7D93292211155EB9A
:10076000A80C495C06710DA7D97286445C1D9521C1
:10077000891B720C770933A2494BC2246E05730F93
:100780007709730625D5814107D4645000740C970E
:1007900009B3E270D8E26ED9027510770933C2242A
:1007A0004CC2244CC2248C8624760E7709335235F1
:1007B000C9A2AC12266906770E7709335253244535
:1007C00052A4744B00780D770933D224ABA495ACB6
:1007D0009206790DA6D93242DF9425159321017A2C
:1007E0000A7709330E69AFC3107B0DC5FBB296B013
:1007F0001A696A1656077C06C1FC323E7D0EC5F9A1
:1008000032D6B0966A521A5626007E0A3779733469
:1008100029D21400000001020408102040800102C7
:100820000408102001020408102000000000250028
:1008300028002B000404040404040404020202023D
:100840000202030303030303F4113608102AA00075
:1008500000A0FF006200EF102BB80100B0FF0062A3
:10086000013F102C7000F410101028F500F4113620
:1008700088113688102AA00000A0FF00A00000A068
:10088000FF00102BB80100B0FF0062013F102C7078
:1008900000F4113648113648102AA00000A0FF00CD
:1008A0006200EF102BB80100B0FF0062013F102C76
:1008B0007000F4113608102AA00000A0FF00A0006C
:1008C00000A0FF00102BB80100B0FF0062013F1034
:1008D0002C7000F4113608102AA00000A0FF00625E
:1008E00000EF102BB80100B0FF0062013F102C7028
:1008F00000FDF1F58005F08005F18032F4101180E3
:100900000A10131020113A6614B60AA2270011C06B
:100910002111C10211C7C012C5313C15CB392C00C1
:10092000340213CF00813013E884117A12EA660092
:100930001029113608142A000000EF142B000001C2
:100940003F102CF50000673811241FBECFEFD8E010
:10095000DEBFCDBF13E0A0E0B1E0EEE1F9E702C0F9
:1009600005900D92A834B107D9F725E0A8E4B3E0CB
:1009700001C01D92A93CB207E1F714E0C4EAD4E03B
:1009800004C02197FE010E944D3CC33AD107C9F72C
:100990000E9404240C948D3C0C940000089580E087
:1009A00090E00895CF938091A4038A3060F00E9474
:1009B000EB1F809357031092A4038091A3038F5FD2
:1009C0008093A30303C08F5F8093A4038091A3034C
:1009D000843608F40BC180917B0380FFDEC08091D8
:1009E000770390917803019649F080917703909175
:1009F00078030196909378038093770380910C029B
:100A0000882309F4C3C010920C0280910D028E302D
:100A100021F08F3F09F0C8C004C0EBE3F3E0C491BC
:100A200074C08EE080930D02EBE3F3E0E491EF3FBE
:100A300009F4BAC0E13011F1E23009F442C0E11129
:100A400063C014BC15BC84B5826084BD85B581606B
:100A500085BDE2E4F8E0E491F0E0EE0FFF1FE65D13
:100A6000F74F8591949190939A0380939903E4E2D0
:100A7000F8E0E491E0939803C0E049C01092800050
:100A80001092810080918100886080938100809124
:100A90008100816080938100E2E4F8E0E491F0E07D
:100AA000EE0FFF1FE65DF74F8591949190939703AA
:100AB00080939603E4E2F8E0E491E0939503C1E0CB
:100AC00026C01092B0001092B1008091B0008260F8
:100AD0008093B0008091B10081608093B100E2E426
:100AE000F8E0E491F0E0EE0FFF1FE65DF74F85912F
:100AF00094919093AE038093AD03E4E2F8E0E49127
:100B0000E093AF03C2E003C0CE2FC7FD4DC061E04C
:100B10008EE00E94A015CC2309F451C0C23009F424
:100B200046C0C130E9F480918100887F8160809364
:100B300081008FE99FE090938900809388008FEF78
:100B40009FEFDC0180939B0390939C03A0939D03F4
:100B5000B0939E0380916F00826080936F0024C0E9
:100B6000C23011F58FE98093B3008FEF9FEFDC0166
:100B70008093B0039093B103A093B203B093B303F7
:100B8000809170008260809370000EC081E080933D
:100B90000C028EE00E94191507C08EE00E94191504
:100BA00010927803109277031092A3031FC08091D4
:100BB000B100887F83608093B1008CE7D4CF85B586
:100BC000887F836085BD8DE387BD8FEF9FEFDC015C
:100BD00080939F039093A003A093A103B093A203DB
:100BE00080916E00826080936E00DECFCF91089579
:100BF000FF920F931F93CF93DF9390E08A3091057C
:100C000008F0C0C1142F032FF22EEB01FC01E25CAF
:100C1000FF4F10928C0410928D0410928E0424E5E4
:100C200030E048E350E06EE170E0CE010C944D3CC2
:100C30000E94DE18F0928C0400938D0410938E04B1
:100C400024E530E04EE050E06EE170E0CE010E941D
:100C5000DE188E01025F1F4F2EE030E04AE250E0C6
:100C60006EE170E0C8010E94DE1824E530E04EE03D
:100C700050E06EE170E0CE018A960E94DE182EE010
:100C800030E04AE250E064E670E024C00E94DE18E2
:100C9000F0928C0400938D0410938E048E01025FF9
:100CA0001F4F2EE030E04AE250E064E670E0C801F9
:100CB0000E94DE1826E430E04EE050E06EE170E085
:100CC000CE014C960E94DE182EE030E04EE050E05F
:100CD0006CE270E0C8014FC10E94DE18F0928C04F3
:100CE00000938D0410938E042EE030E048E350E032
:100CF0006EE170E0CE010E94DE182EE030E04EE0A2
:100D000050E06CE270E0CE018A960E94DE182EE080
:100D100030E048E350E06AE370E0CE010E94DE1864
:100D20002AE230E04EE050E06AE370E0CE0186C097
:100D30000E94DE18F0928C0400938D0410938E04B0
:100D40002EE030E048E350E06EE170E0CE010E941A
:100D5000DE1824E530E04EE050E06EE170E0CE01B8
:100D60008A960E94DE182EE030E04AE250E06AE304
:100D700070E0CE010E9662C00E94DE18F0928C04E4
:100D800000938D0410938E042AE230E04EE050E090
:100D90006EE170E0CE010E94DE182EE030E048E304
:100DA00050E068E470E0CE010E94DE1828E330E0F5
:100DB0004EE050E06AE370E0CE014C96DCC00E9449
:100DC000DE18F0928C0400938D0410938E042EE0B4
:100DD00030E048E350E06EE170E0CE010E94DE18A2
:100DE0002CE130E013C00E94DE18F0928C040093D6
:100DF0008D0410938E042EE030E048E350E06EE165
:100E000070E0CE010E94DE1826E430E04EE050E0B3
:100E10006CE270E0CE010E94DE182EE030E048E384
:100E200050E06AE370E0CE010E94DE182CE130E071
:100E30004EE050E068E470E0CE018A960E94DE1831
:100E40002EE030E048E350E064E670E0CE0193C06D
:100E50000E94DE18F0928C0400938D0410938E048F
:100E60002EE030E048E350E06EE170E0CE010E94F9
:100E7000DE182EE030E04EE050E06CE270E0CE0193
:100E80008A960E94DE182CE130E04EE050E06AE3E2
:100E900070E0CE014C960E94DE182CE130E04EE06E
:100EA00050E066E570E0CE010E9665C00E94DE1847
:100EB000F0928C0400938D0410938E0424E530E0AE
:100EC0004EE050E06EE170E0CE010E94DE188E012F
:100ED000025F1F4F2EE030E04AE250E06EE170E02A
:100EE000C8010E94DE182EE030E04AE250E06AE3DA
:100EF00070E0C8010E94DE182EE030E04AE250E0C7
:100F000064E670E0C8012DC00E94DE18F0928C04E7
:100F100000938D0410938E042AE230E04EE050E0FE
:100F20006EE170E0CE010E94DE188E01025F1F4F5D
:100F30002EE030E04AE250E06EE170E0C8010E942D
:100F4000DE182EE030E04AE250E06AE370E0C801CB
:100F50000E94DE182EE030E048E350E064E670E0E6
:100F6000CE010E94DE1824E530E04EE050E06EE154
:100F700070E0CE018A96DF91CF911F910F91FF9083
:100F80000C94DE18DF91CF911F910F91FF9008957F
:100F9000FF920F931F93CF93DF93C82F80917B0312
:100FA000869581709091A9039813C1E080917B038D
:100FB000869581708093A90383E10E94C014D82F85
:100FC0008111F6C08091A803813009F0F1C09091A1
:100FD0005803992319F01092580302C080935803C4
:100FE0006091580381E092E00E94A31010928C045B
:100FF00010928D0410928E0429E130E041E450E01B
:1010000060E070E08FEF90E00E94DE182AE030E0B0
:101010004EE150E060E070E082E390E00E94DE1874
:1010200010923405109233058AE090E090933605D3
:101030008093350580915803882309F19BE99093AB
:101040008C0490938D0490938E046EEB71E082E695
:1010500094E00E942B1480917B038E7F80937B030E
:1010600080917B038D7F80937B0390917B039770AE
:1010700090937B0310927C0310927D030DC09FEF31
:1010800090938C0490938D0490938E0465EB71E0A3
:1010900082E694E00E942B1480917B0381FF2EC096
:1010A0000BEE10E010933405009333058AE090E0D6
:1010B000909336058093350587E393E00E9480196D
:1010C00082E694E00E946414109334050093330583
:1010D00089E190E09093360580933505C0917D03BA
:1010E00080917D038A3018F007E413E002C005E325
:1010F00013E0F0907C0380917C0338C080915B0307
:10110000883008F04DC00BEE10E0109334050093CA
:1011100033058AE090E09093360580933505209161
:101120005B033DE0239FC00111248B569E4F0E941C
:10113000801982E694E00E946414109334050093B1
:10114000330589E190E09093360580933505C09191
:101150005A0380915A038A3018F007E413E002C062
:1011600005E313E0F0905903809159038A3018F099
:1011700087E493E002C085E393E00E9480198F2DFD
:101180000E94791983E493E00E948019C8010E94AB
:1011900080198C2F0E94791982E694E00E946414D1
:1011A000D093A803DF91CF911F910F91FF900895E5
:1011B000C1111CCFF5CF2F923F924F925F926F9249
:1011C0007F928F929F92AF92BF92CF92DF92EF92D7
:1011D000FF920F931F93CF93DF93CDB7DEB7659741
:1011E0000FB6F894DEBF0FBECDBFDE01119694E1BD
:1011F000FD0111929A95E9F72FEF3FEF3A8329838A
:10120000E091820390917B0391FF02C080E038C19E
:1012100090917B0390FDFACF8823C1F3E150ED8BD1
:10122000C09084030C2C000CDD0888E190E02C01B8
:101230004C185D08A09085030A2C000CBB088CE3B9
:1012400090E01C012A183B0840E050E06E2E712C03
:1012500087E090E04C01861897084F5F5F4FBA0116
:10126000660F771FCB01840F951F875A9C4FFC0197
:1012700022812281283008F447C02FEF3FEF1396D8
:101280003C932E93129712964930510531F7FE0187
:10129000339691E080E02191319149815A81241760
:1012A000350718F43A832983892F9F5F9A3099F77D
:1012B0008823C9F0E82FF0E09F01220F331FE20FCF
:1012C000F31FE75AFC4F90819093590391819093BB
:1012D0005A03928190935B0329813A813093A7034B
:1012E0002093A60308C093E69093590390935A0362
:1012F00098E090935B039091A503981709F486CF2B
:101300008093A50381E0BCC0FC018281873009F095
:1013100092C0FD89F53008F08EC080E090E08B012E
:10132000040F151F075A1C4FF801208130E02C15BF
:101330003D052CF0208130E02C193D0925C0F80135
:101340002081F201E20FF11D9F011816190614F415
:1013500001971AC0F8018281873031F4FD89F43099
:1013600018F480E090E010C0CB01840F951F875ADD
:101370009C4FFC018281873009F07AC08D898430CE
:1013800009F076C082E090E08B01040F151FF80190
:10139000E75AFC4F7F01018110E00A151B05F4F4A8
:1013A0001181F101E10FF11D8F01121613061CF4DA
:1013B0002150310928C01816190624F4019727E195
:1013C00030E021C0F7018281873069F4FD89F43073
:1013D00050F427E130E080E090E015C0018110E09A
:1013E0000A191B0910C0640F751F675A7C4FFB0157
:1013F0008281873009F03FC02D892430E1F527E153
:1014000030E083E090E0E0EAF5E08E9FB0018F9F4E
:10141000700D9E9F700D1124FCE3F29FC001F39F9D
:10142000900D1124860F971F800F911F13969C9388
:101430008E93129728CFCB01840F951F875A9C4F0C
:10144000FC012281273011F4C40169CFFC01228103
:10145000FD892F1730F0FC01828190E086199709F1
:101460005ECFFC0182819401280F311DC90157CF45
:1014700086E090E089CF27E130E086E090E0C3CFBE
:1014800065960FB6F894DEBF0FBECDBFDF91CF914A
:101490001F910F91FF90EF90DF90CF90BF90AF9092
:1014A0009F908F907F906F905F904F903F902F9084
:1014B00008958F929F92AF92BF92CF92DF92EF9258
:1014C000FF92CF93DF9380915503813009F490C050
:1014D000B0F0823009F478C0833009F089C061E04F
:1014E00089E00E94A0158091800080688093800030
:1014F00020914A0330914B03A2E3B0E088C00E94E0
:101500009818C0915103D0915203E0904D03F09090
:101510004E0320914D0330914E03821B930BBC016F
:10152000990F880B990B0E944B3A4B015C01CE013D
:101530008E199F09BC01990F880B990B0E944B3A99
:101540009B01AC0160E070E08FE793E40E94A13959
:101550009B01AC01C501B4010E941B3B6B017C01E6
:1015600020E030E04FE753E40E94163B1816CCF021
:10157000A701960160E070E08FE793E40E942F39A5
:101580000E94133A6B3F710524F4693171051CF414
:1015900008C06FEF70E0EB01CC0FDD1FCC0FDD1F3B
:1015A00002C0C9E1D0E061E089E00E94A01580910D
:1015B000800080688093800020914A0330914B0323
:1015C000DE010E94623C25C061E089E00E94A01516
:1015D0008091800080688093800080914A03909180
:1015E0004B03A0E0B0E0B695A795979587951AC0F4
:1015F00061E089E00E94A01580918000806880935E
:10160000800020914A0330914B03AFEFB3E00E947A
:10161000533CDC01CB012AE0B695A79597958795B9
:101620002A95D1F7909389008093880080914C038C
:10163000806180938100DF91CF91FF90EF90DF90E8
:10164000CF90BF90AF909F908F900895CF93DF93EE
:1016500060E080913A050E94E91461E080913805CC
:101660000E94E9148FEB0E946618CBE3D5E00E943C
:101670003C18899385E0C334D807C9F760E08091AE
:1016800038050E94E91480913B05282F2695269560
:1016900026952E70922F990F990F290F8F70280F72
:1016A00080913C05382F3695369536953E70932FB0
:1016B000990F990F390F8F70380F80913D05682F62
:1016C0006F7087FF08C085FB992790F9ECE09E9F1B
:1016D000600D112409C08073869586958695982F94
:1016E000990F990F890F680F90913E05492F4695E4
:1016F000469546954E70842F880F880F480F9F702F
:10170000490F90913F05592F5695569556955E7005
:10171000852F880F880F580F9F70590F70914005C3
:1017200080914105982F92959F708F70EAE09E9F5F
:10173000800D112490E08053984F60935A043093A9
:101740005B0420935C0440935D0450935E0490938B
:10175000600480935F04709361049093810380938D
:10176000800350937F0340938303709382036093BD
:1017700084033093850320938603DF91CF910895EE
:10178000CF93DF93EC01A881B981EB01E881F98166
:10179000A217B30784F44E175F076CF4A417B507BC
:1017A0001CF4DC014D935C932E173F073CF4EB01D6
:1017B0003983288303C080E090E002C081E090E09C
:1017C000DF91CF9108958EBD00000DB407FEFDCFCF
:1017D0008EB508952F923F924F925F926F927F92B3
:1017E0008F929F92AF92BF92CF92DF92EF92FF9231
:1017F0000F931F93CF93DF9300D000D0CDB7DEB708
:101800009C838B83462E8B529F4F9A838983FC0146
:101810005080EB80FC80F3EDEF0EF11CF701A0800F
:10182000B180CB80DC80F1EDCF0ED11CF601808041
:1018300091800B811C810C5F1F4FF1E05F1601F15D
:101840005F1690F022E0521639F133E053122FC0A8
:10185000EB81FC81E659FF4F0190F081E02DC8013A
:101860000995880E991E23C0EB81FC81E659FF4F34
:101870000190F081E02DC8010995A80EB91E17C08E
:10188000EB81FC81E659FF4F0190F081E02DC8010A
:101890000995881A990A0BC0EB81FC81E659FF4F24
:1018A0000190F081E02DC8010995A81AB90AEB81D1
:1018B000FC81E259FF4F91828082EB81FC81E059EB
:1018C000FF4FB182A082EB81FC81E858FF4F50822C
:1018D000EB81FC81E859FF4F808191814596E0E6DC
:1018E000E41528F4EB81FC81E457FF4F07C0F0E4D6
:1018F000F41540F4EB81FC81E657FF4F20813181E4
:10190000820F931F9C012F5F3F4FF90144914423A5
:1019100009F4AFC0FC014491441103C0009731F4B5
:10192000A8C0F9012491820F911DECCFAB80BC803F
:10193000FCE6AF0EB11CF5011286029691838083FE
:10194000EB81FC81E358FF4F6081C5010E945D1768
:10195000F5018087EB81FC81E258FF4F6081C50172
:101960000E945D17582EF5018187EB81FC81E158BB
:10197000FF4F9080692DC5010E945D179A946624DF
:101980006394712CA30101C0440F9A94EAF7382E96
:10199000341AEB81FC81E058FF4F9080692DC5011E
:1019A0000E945D179A94930102C0220F331F9A94EC
:1019B000E2F74901252C280EEB81FC81EF57FF4F00
:1019C0004080642DC5010E945D174A94930101C0B7
:1019D000220F4A94EAF7482E421AF501808518161C
:1019E00024F0042C000C550846C0F501948482189C
:1019F000292D482D632D828193810E94BE16F50109
:101A000093838283292D482D632D848195810E94A3
:101A1000D716F50195838483168217828B809C806C
:101A2000FBE78F0E911C6B807C802CE7620E711C93
:101A3000F4016081C5010E945D17282EF3016081C9
:101A4000C5010E945D17382E40E0622DC8010E943A
:101A5000F01641E0632DC8010E94F01661E0C50157
:101A60000E945D178111F0CFF5018781851504F380
:101A7000B8CF412C512CE981FA818081813039F035
:101A800020F0823061F4F6010BC0F60101C0F701CD
:101A900080819181480E591E5182408207C0F70112
:101AA00080819181841995099183808381E090E000
:101AB0000F900F900F900F90DF91CF911F910F918A
:101AC000FF90EF90DF90CF90BF90AF909F908F905E
:101AD0007F906F905F904F903F902F900895CF929E
:101AE000DF92EF92FF920F931F93CF93DF937C01CE
:101AF000EA018901FB013A97EC30F10508F026C1B3
:101B0000E85BFF4F0C944D3C0F5F1F4F8D569F4F6E
:101B10007C010FC1C20FD31FF7C0FC01EE56FF4F6F
:101B200080818F3F19F061E00E94A015F701ED560A
:101B3000FF4F61E080810E94A015F701EC56FF4F36
:101B400080818F3F19F061E00E94A015CFB7F89413
:101B50008091AC03811127C0EEE3F8E08491E0E2CC
:101B6000F8E09491E82FF0E0EE0FFF1FED5EFC4FE0
:101B7000A591B491EC91E92321F461E08AE00E94FF
:101B8000E91461E08AE00E94A0158CB580618CBDEB
:101B90008CB580648CBD61E08DE00E94A01561E091
:101BA0008BE00E94A0158091AC038F5F8093AC0303
:101BB000CFBFF8012081318140E050E060E07AEC55
:101BC0008AE99BE30E942B3C90E070E8C72E7DE8F9
:101BD000D72E7BE5E72EF12C2C153D054E055F0534
:101BE00040F4F694E794D794C7949F5F9630A1F79A
:101BF00097E081E08927982F906A969581702091CF
:101C0000AB03222379F02FB7F8943091AB03313036
:101C100039F43DB33093AA033DB33DBB2FBF02C09F
:101C20002093AA039CBD8DBD91C08091AB038823F6
:101C300061F09FB7F8942091AB038091AA03213003
:101C400019F48DBB9FBF01C08FBF9FB7F8948091DF
:101C5000AC03882319F081508093AC038091AC03CE
:101C6000811105C08CB58F7B8CBD1092AB039FBFDB
:101C70006DC04230510508F469C045505109CC0F80
:101C8000DD1FC40FD51F2197F1F760C0FC01EE5690
:101C9000FF4F03C0FC01EC56FF4F80818F3F09F4DA
:101CA00055C06C2F05C0FC01ED56FF4F642F80819D
:101CB0000E94E9144BC0842F0E94E30B47C0209779
:101CC00009F444C0F80180810E94E30B2197F7CF0B
:101CD0002097E1F1F80180810E94E30BF8018181F6
:101CE0000E94E30B2197F4CF209781F1F8018081C6
:101CF0000E94E30BF80181810E94E30BF8018281CD
:101D00000E94E30B2197F0CF0C171D07F9F0F801A3
:101D100081918F010E94E30BF7CFF8013197808109
:101D200081110AC0F80180810E94E30B21970E5FA8
:101D30001F4F209791F70AC0813011F460E001C075
:101D400061E0F70180810E94E914ECCF81E090E02E
:101D5000DF91CF911F910F91FF90EF90DF90CF9087
:101D60000895EF92FF920F931F93CF93C42F8C018E
:101D70000A531F4FAC0149535F4F7A0161111BC0D9
:101D8000D8013C913C2329F0FA0130813C233C13DB
:101D90002EC0622F70E0DC015196ED91FC915297BC
:101DA00020E030E040E050E009959C2F9095F7014D
:101DB0008081892317C0F80130813C2321F0DA01AA
:101DC0003C913C23A1F4462F50E0622F70E0DC01EF
:101DD0005196ED91FC91529720E030E00995F70182
:101DE00080818C2B8083D8018C91C82BCC93CF9190
:101DF0001F910F91FF90EF9008952FE041E00C9418
:101E0000B10EFC0125893689E25AFF4F408151818C
:101E1000241B350B37FD0AC0349681E090E04081E9
:101E200051812417350724F080E0089580E090E088
:101E30000895FC0123893489E45AFF4F4081518180
:101E4000241B350B37FD0AC0349681E090E04081B9
:101E500051812417350724F080E0089580E090E058
:101E60000895EF92FF920F931F93CF93DF9300D0CB
:101E700000D0CDB7DEB78C01FC01178E168EE48C36
:101E8000F58CF1E0EF16F10409F446C01CF4EF28DC
:101E900061F0E7C052E0E516F10409F472C083E096
:101EA000E816F10409F4A5C0DCC00E94010F892BDB
:101EB00019F4E12CF12CD8C0F801238934893C8332
:101EC0002B83828D938D820F931F9A838983E45A8B
:101ED000FF4F40815181349620813181240F351F7D
:101EE000BE016F5F7F4FCE0103960E94C00B892B0E
:101EF00001F32B813C81F80183899489A901481B56
:101F0000590B578F468F348B238B89819A81821B83
:101F1000930B938F828FA5C00E94190F892B49F2D2
:101F2000F801258936893C832B83828D938D820F1E
:101F3000931F9A838983E25AFF4F408151813496DF
:101F400020813181240F351FBE016F5F7F4FCE018D
:101F500003960E94C00B892B09F4ABCF2B813C81E7
:101F6000F80185899689A901481B590B578F468F1F
:101F7000368B258B89819A81821B930B938F828F5D
:101F800073C00E94010F892B09F493CFF801838954
:101F9000948901969A838983228D338D821B930BBA
:101FA0009C838B83E45AFF4F40815181349620817A
:101FB0003181240F351FBE016F5F7F4FCE01039625
:101FC0000E94C00B892B09F474CF89819A812B81DF
:101FD0003C81AC01421B530BF801538F428F019798
:101FE00023893489281B390B378F268F948B838B59
:101FF00038C0C8010E94190F892B09F45ACFF80183
:102000008589968901969A838983228D338D821BD7
:10201000930B9C838B83E25AFF4F4081518134960E
:1020200020813181240F351FBE016F5F7F4FCE01AC
:1020300003960E94C00B892B09F43BCF89819A81BA
:102040002B813C81AC01421B530BF801538F428F13
:10205000019725893689281B390B378F268F968B58
:10206000858BEE24E394F12CC7010F900F900F9015
:102070000F90DF91CF911F910F91FF90EF900895F6
:10208000FC0126818081280F208344855585828527
:102090009385840F951F9587848740855185841784
:1020A00095073CF03281230F2083841B950B958785
:1020B000848708950F931F93CF93DF93EC018C01D6
:1020C0000C5F1F4F8C818E7F8C831E861D8681E066
:1020D00090E09DA38CA3FE01E859FF4F118210826E
:1020E0003F968083ED5AFF4F1082319610823196D1
:1020F00010828EE99BE19C878B8781EA9BE19A871E
:1021000089871E8A1D8AC8010E94B616C8010E94CE
:10211000CA1FC8010E94BA1FFE01EF52FF4F118271
:10212000108232961182108232961082FF97CD551E
:10213000DF4F8FEF8193EC17FD07E1F7DF91CF9130
:102140001F910F9108950C9421390C9419394F92D5
:102150005F926F927F928F929F92AF92BF92CF9237
:10216000DF92EF92FF920F931F93CF93DF93EB01D8
:1021700090E0FC01E154F109E730F10508F096C068
:10218000EC5AFF4F0C944D3C4B0188E3880E911C98
:102190008B01035D1F4F3B018EE0680E711C24967E
:1021A00049E250E089E290E02EE130E06EE170E03B
:1021B0008DC04B018CE3880E911C8B010E5C1F4F70
:1021C0003801E40149E250E08FE490E029E530E095
:1021D00040C04B018CE3880E911C8B010E5C1F4F9D
:1021E0003801E40145E650E08BE890E025E930E075
:1021F00021C04B0183E0880E911C8B01045F1F4FAF
:102200003B018FE2680E711CE8964DE850E08DE8C6
:1022100090E026E930E066E970E058C04B018AE0C2
:10222000880E911C3B01840145E950E08BE890E069
:1022300025E630E06BE570E049C04B018AE0880E8E
:10224000911C3B01840149E550E08FE490E029E2D4
:1022500030E06FE170E03AC03B018AE0680E711C2B
:102260004B0187E3880E911C2B0185E0480E511C21
:10227000AB014F5C5F4F8AE5A82EB12C62019AE555
:10228000E92EF12C840125E530E065E570E0C3011D
:102290000E94851905501109E2014FE550E08FE5D4
:1022A00090E02AE530E06AE570E010C040E050E0E0
:1022B000612C712C80E090E000E010E020E030E044
:1022C000812C912C60E070E0C0E0D0E05A01630105
:1022D0007C01A401CE010E948519DF91CF911F914D
:1022E0000F91FF90EF90DF90CF90BF90AF909F90B5
:1022F0008F907F906F905F904F9008952091790319
:10230000233018F001971092790320917A0323303B
:1023100018F0019610927A03089590E08C309105A0
:1023200008F07AC0FC01E55AFF4F8AE090E09093F4
:102330003405809333050C944D3C86E490E09093F3
:1023400036058093350569EF72E062C087E390E05F
:10235000909336058093350564EF72E059C086E4AA
:1023600090E090933605809335056AED72E050C099
:1023700085E590E0909336058093350560EC72E03A
:1023800047C084E690E0909336058093350566EA71
:1023900072E03EC083E790E0909336058093350568
:1023A0006CE872E035C082E890E090933605809347
:1023B000350562E772E02CC081E990E09093360524
:1023C0008093350568E572E023C080EA90E0909341
:1023D0003605809335056EE472E01AC08FEA90E00E
:1023E000909336058093350565E372E011C08EEB5E
:1023F00090E090933605809335056CE172E008C05B
:102400008DEC90E0909336058093350563E072E0A3
:1024100082E694E00C942B14089585E090E090936C
:102420003405809333058CEE90E0909336058093CD
:10243000350561EE71E082E694E00C942B141F9355
:10244000CF93DF930E941A19C2E6D4E01FEF1AA7B8
:102450001BA71CA72CED30E040E451E060E070E0E9
:1024600080E090E00E94B5231AA71BA71CA78AE072
:1024700090E0909334058093330584E190E090934D
:1024800036058093350568EC71E0CE01DF91CF9180
:102490001F910C942B14CF92DF92EF92FF920F9327
:1024A0001F93CF93DF936C017A018B01C0E0D0E0E2
:1024B000CE15DF0589F0D8016D918D01D601ED9122
:1024C000FC910190F081E02DC6010995892B11F452
:1024D0007E0102C02196ECCFC701DF91CF911F9101
:1024E0000F91FF90EF90DF90CF900895FC01538DF6
:1024F000448D252F30E0842F90E0821B930B5417DE
:1025000010F0CF96089501970895FC01918D828D6A
:10251000981761F0828DDF01A80FB11D5D968C9137
:10252000928D9F5F9F73928F90E008958FEF9FEF42
:102530000895FC01918D828D981731F0828DE80FFE
:10254000F11D858D90E008958FEF9FEF0895FC01B8
:10255000918D228D892F90E0805C9F4F821B910985
:102560008F73992708958DEB93E00E94A71221E0C5
:10257000892B09F420E0822F0895FC01848DDF016E
:10258000A80FB11DA35ABF4F2C91848D90E00196E6
:102590008F739927848FA689B7892C93A089B189D5
:1025A0008C9180648C93938D848D981306C00288DF
:1025B000F389E02D80818F7D80830895EF92FF92D3
:1025C0000F931F93CF93DF93EC0181E0888F9B8D56
:1025D0008C8D981305C0E889F989808185FD24C018
:1025E000F62E0B8D10E00F5F1F4F0F731127E02E9B
:1025F0008C8DE8120CC00FB607FCFACFE889F98978
:10260000808185FFF5CFCE010E94BD12F1CF8B8D69
:10261000FE01E80FF11DE35AFF4FF0820B8FEA89AC
:10262000FB898081806207C0EE89FF896083E88929
:10263000F98980818064808381E090E0DF91CF918F
:102640001F910F91FF90EF900895CF93DF93EC01CE
:10265000888D8823C9F0EA89FB89808185FD05C0C2
:10266000A889B9898C9186FD0FC00FB607FCF5CFFC
:10267000808185FFF2CFA889B9898C9185FFEDCF44
:10268000CE010E94BD12E7CFDF91CF91089580E087
:1026900090E0892B29F00E94B31281110C94000064
:1026A0000895833081F028F4813099F08230A1F0D0
:1026B00008958730A9F08830B9F08430D1F4809142
:1026C00080008F7D03C0809180008F778093800091
:1026D000089584B58F7702C084B58F7D84BD089539
:1026E0008091B0008F7703C08091B0008F7D809380
:1026F000B00008959FB7F8944091B9035091BA0380
:102700006091BB037091BC0386B5A89B06C08F3F48
:1027100021F04F5F5F4F6F4F7F4F9FBF762F652F29
:10272000542F44279A01AB01280F311D411D511D23
:10273000A5E0B0E00E94693C08950F931F93CF93EA
:10274000DF93DC01EA011996ED91FC911A9766314D
:1027500071055CF4643171052CF56C30710549F03C
:102760006F30710509F449C041C067317105D1F07E
:102770003DC02E813F81488159810A811B811B9672
:102780008D919C911C97801B910B821B930B9983BD
:1027900088835B834A838C819D813D832C839F83C7
:1027A0008E8324C05C962D913C915D972F5F3F4FA7
:1027B000237033275D963C932E935C9753968D91AF
:1027C0009C9154971B962D913C911C9755964D9139
:1027D0005C915697241B350B2150310954963C933C
:1027E0002E93539756969C938E935597AE01CD0199
:1027F000DF91CF911F910F9109948A01EC01AC01F7
:10280000455F5F4F6FE070E009958B859C85F8010F
:10281000938382838D859E859183808381E090E080
:10282000DF91CF911F910F9108956150FC01808934
:10283000681710F06FEF680F862F08956F5FFC0127
:102840008089681708F060E0862F089580E090E0A6
:1028500008950E94883CEF92FF920F931F93CF93AD
:10286000DF938C017B01C0E0D0E0F701EC0FFD1F8E
:102870006491662361F0D801ED91FC910190F081A3
:10288000E02DC8010995892B11F02196EECFCE01DC
:10289000DF91CF911F910F91FF90EF9008956115F7
:1028A000710579F0FB0101900020E9F73197AF0144
:1028B000461B570BDC01ED91FC910280F381E02D6A
:1028C000099480E090E0089565E473E00C944F145F
:1028D0001F920F920FB60F9211242F933F934F9395
:1028E0005F936F937F938F939F93AF93BF93EF9378
:1028F000FF938DEB93E00E94BD12FF91EF91BF918A
:10290000AF919F918F917F916F915F914F913F9187
:102910002F910F900FBE0F901F9018951F920F923E
:102920000FB60F9211242F938F939F93EF93FF93E2
:10293000E091CD03F091CE038081E091D303F0913B
:10294000D40382FD12C090818091D6038F5F8F7374
:102950002091D703821751F0E091D603F0E0E354C1
:10296000FC4F958F8093D60301C08081FF91EF913A
:102970009F918F912F910F900FBE0F901F901895E0
:10298000CF93DF93282F30E0F901E95DFC4F84916C
:10299000F901EA5EF74FD491F901EC5CF74FC4916D
:1029A000CC2391F081110E945113EC2FF0E0EE0F37
:1029B000FF1FE35EFC4FA591B491EC91ED2381E004
:1029C00090E021F480E002C080E090E0DF91CF91C0
:1029D00008951F93CF93DF93282F30E0F901E95D2D
:1029E000FC4F8491F901EA5EF74FD491F901EC5C58
:1029F000F74FC491CC23C9F0162F81110E945113B7
:102A0000EC2FF0E0EE0FFF1FE65DF74FA591B491BC
:102A10008FB7F894111105C09C91ED2FE095E92333
:102A200002C0EC91ED2BEC938FBFDF91CF911F9102
:102A3000089590910D02981324C0EBE3F3E0E49124
:102A40009FEF90930D02E130B9F098F0E230C9F4B5
:102A5000909170009D7F9093700091E09093B000F2
:102A60009091B100987F94609093B1001092B30060
:102A700008C010926E0005C090916F009D7F9093EA
:102A80006F0060E00C94E9141F920F920FB60F9242
:102A900011242F933F934F935F936F937F938F9363
:102AA0009F93AF93BF93EF93FF938091B003909167
:102AB000B103A091B203B091B303892B8A2B8B2B66
:102AC00051F18091AF03E091AD03F091AE0390819D
:102AD000892780838091B0039091B103A091B203C4
:102AE000B091B303181619061A061B06C4F4809198
:102AF000B0039091B103A091B203B091B3030197D9
:102B0000A109B1098093B0039093B103A093B203DC
:102B1000B093B30304C080910D020E941915FF9178
:102B2000EF91BF91AF919F918F917F916F915F9145
:102B30004F913F912F910F900FBE0F901F901895BE
:102B4000CF93DF9390E0FC01EA5EF74F2491FC0104
:102B5000EC5CF74F8491882361F190E0880F991F16
:102B6000FC01ED5EFC4FC591D491FC01E65DF74F91
:102B7000A591B491611109C09FB7F89488812095FF
:102B800082238883EC912E230BC0623061F49FB7BF
:102B9000F8943881822F809583238883EC912E2BA3
:102BA0002C939FBF06C08FB7F894E8812E2B288303
:102BB0008FBFDF91CF9108958F929F92AF92BF9276
:102BC000CF92DF92EF92FF926B017C010E947A1309
:102BD0004B015C01C114D104E104F104F1F00E9445
:102BE0007A13DC01CB0188199909AA09BB09883E2F
:102BF0009340A105B10570F321E0C21AD108E108A4
:102C0000F10888EE880E83E0981EA11CB11CC11447
:102C1000D104E104F10419F7DDCFFF90EF90DF90CC
:102C2000CF90BF90AF909F908F9008951F920F927A
:102C30000FB60F9211242F933F938F939F93AF93CF
:102C4000BF938091B5039091B603A091B703B09163
:102C5000B8033091B4032DE2230F2D3720F40196F1
:102C6000A11DB11D05C020EB230F0296A11DB11DB2
:102C70002093B4038093B5039093B603A093B70356
:102C8000B093B8038091B9039091BA03A091BB03AC
:102C9000B091BC030196A11DB11D8093B90390931F
:102CA000BA03A093BB03B093BC03BF91AF919F91B4
:102CB0008F913F912F910F900FBE0F901F901895FD
:102CC0001F920F920FB60F9211242F933F934F93A1
:102CD0005F936F937F938F939F93AF93BF93EF9384
:102CE000FF93E0914803F09149030995FF91EF911B
:102CF000BF91AF919F918F917F916F915F914F9114
:102D00003F912F910F900FBE0F901F901895FC01CF
:102D10002085318582859385281739072CF54485D0
:102D2000558584819581480F591F5587448766854D
:102D3000778586819781860F971F978786871816D4
:102D4000190664F460817181460F571F55874487C7
:102D500042815381841B950B978786872F5F3F4F56
:102D60003187208781E0089580E00895FC01EA59C9
:102D7000FF4F86E294E1918380830895213069F0CA
:102D800038F0223079F4861B910967FD93950895F8
:102D9000860F911D67FD9A950895841B910947FD43
:102DA00093950895840F911D47FD9A9508952130BC
:102DB00069F038F0223079F4841B910947FD93952E
:102DC0000895840F911D47FD9A950895860F911DD2
:102DD00067FD9A950895861B910967FD939508955F
:102DE0005F926F927F928F929F92AF92BF92CF929B
:102DF000DF92EF92FF920F931F93CF93DF93EC013B
:102E0000D62EA42E8C0108591F4FF801E680B780FA
:102E1000F801C084CE185C2CDC1408F45D2CF80199
:102E200084809580F4842F2D4B2D6E2D828193818B
:102E30000E94BE163C012F2D4B2D6E2DC4010E9409
:102E4000D716AA2031F02EA12F8B2FA1288F28A5CD
:102E500009C0F8012385211115C029A52F8B2AA5AA
:102E6000288F2BA5298F7C8A6B8A9E8B8D8B852D35
:102E700090E09B8F8A8F2F2D30E03D8F2C8FCE01DD
:102E80000E94831FDC1420F0DC18B394E12CC0CF27
:102E90006D2D6E0DF8016683B782DF91CF911F9182
:102EA0000F91FF90EF90DF90CF90BF90AF909F90E9
:102EB0008F907F906F905F900895DC011A964C91EF
:102EC0001A97ED91FC911197249130E0042E02C0E5
:102ED000359527950A94E2F7862F840F883010F4F1
:102EE000E22F0EC031961196FC93EE939491E92F48
:102EF00098E0941B01C0EE0F9A95EAF7E22B8850F8
:102F00001A968C9381E090E001C0880F6A95EAF7E9
:102F100081508E230895CF92DF92EF92FF920F930C
:102F20001F93CF93DF93082F10E093E1899FE00177
:102F30001124CD5BDA4F6EA184E0689FF00111246B
:102F4000ED5BFA4FE280F380C080D180ECA1FDA15F
:102F500083E495E0099594E0899FF0011124ED5BED
:102F6000FA4F22813381408151818EA3CA018C198D
:102F70009D09A9014E195F095F8B4E8B3F8F2E8FE4
:102F8000FD8EEC8ED9A2C8A297FD08C021E030E0EA
:102F90003D8B2C8B1BA21AA27C010EC02FEF3FEFA2
:102FA0003D8B2C8BEE24FF24E81AF90A21E030E057
:102FB000241B350B3BA32AA323E1209FF001219F73
:102FC000F00D1124ED5BFA4F26893789B9010E9473
:102FD000173C718F608FC701B9010E94173C938F16
:102FE000828FDF91CF911F910F91FF90EF90DF9033
:102FF000CF900895EF92FF920F931F93CF93DF939B
:103000008C0183E1689FF0011124ED5BFA4F66A10A
:103010007F01A4E2EA0EF11CEF01A696D701ED9123
:10302000FC9183E495E00995682FB4E08B9FF00153
:103030001124ED5BFA4F828193818017910711F47F
:103040006883ECCFDF91CF911F910F91FF90EF90AC
:1030500008959C0190915305943068F484E0989F02
:10306000F0011124ED5BFA4F318320837383628377
:103070009F5F9093530508951F93CF93DF9360E074
:10308000809139050E94A015C0E0D0E010E0809149
:1030900039050E94C0149C0133270C2E01C0220F59
:1030A0000A94EAF7122B61E080913A050E94E91434
:1030B00060E080913A050E94E9142196C830D1055C
:1030C00031F7812FDF91CF911F910895EF92FF92F9
:1030D0000F931F93CF93DF93082F61E08091390501
:1030E0000E94A015F0903A05E0903905C0E0D0E0CC
:1030F00010E0B8010C2E02C0759567950A94E2F7AE
:10310000617077278E2D0E94E91461E08F2D0E9457
:10311000E91460E08F2D0E94E9142196C830D10592
:1031200041F7DF91CF911F910F91FF90EF9008959C
:1031300080910E0220E4829FC0011124816080935F
:103140007C0080917A00806480937A0080917A007C
:1031500086FDFCCF809178002091790090E0922B41
:103160000895E82FF0E0E45CFC4F849190E0982F04
:1031700088273196E4918E0F911D08950F931F9328
:10318000CF93DF93182F062FC8E3D5E060E08A8144
:103190000E94E91461E088810E94E914812F880F60
:1031A00080680E946618802F0E94661860E08881FF
:1031B000DF91CF911F910F910C94E914CF92DF9280
:1031C000EF92FF920F931F93CF93DF937C018B01BC
:1031D0006A01E9011C161D0624F580918C04809378
:1031E0007D0480918D0480937E0480918E04809371
:1031F0007F04F0927A04E092790410937C040093A7
:103200007B04D0928104C0928004109283041092B7
:10321000820486E694E00E94831F21970F5F1F4F70
:10322000D9CFDF91CF911F910F91FF90EF90DF9059
:10323000CF900895CF93DF93C2E6D4E01AA61BA6E1
:103240001CA686E694E00E948E1F2F8138854D8152
:103250005E8160E070E080E090E00E94DE188FEF19
:103260008AA78BA78CA7DF91CF9108958F929F9209
:10327000AF92BF920F931F93CF93DF93CDB7DEB77B
:10328000A1970FB6F894DEBF0FBECDBF19A2423092
:1032900008F44AE08E010F5D1F4F842E912CA12C63
:1032A000B12CA50194010E942B3CE62FB901CA0163
:1032B00001501109EA3014F4E05D01C0E95CD80165
:1032C000EC93232B242B252B61F7B80182E694E0A5
:1032D0000E944F14A1960FB6F894DEBF0FBECDBF6B
:1032E000DF91CF911F910F91BF90AF909F908F90E2
:1032F0000895682F70E080E090E04AE00C94361961
:10330000BC0182E694E00C944F148F929F92AF928E
:10331000BF92CF92DF92EF92FF920F931F93CF93C2
:10332000DF93EA014901109253050E942918B40164
:10333000CE010E942918B701C8010E942918B501C1
:10334000C6010E9429188EE194E190937B05809339
:103350007A0585E194E19093680580936705209153
:103360004505309146051092690560915305E3E4E7
:10337000F5E0E90190E081E0861770F4468157811D
:10338000241735070CF49A014C175D0714F4982F95
:10339000EA018F5F3496F0CF909369052C1B3D0BAB
:1033A0003093560520935505232B09F4DBC09093E9
:1033B0007C0561E0CE010E94FA1760E0CE010E9418
:1033C000FA1781E080935405A091690584E0A89FD5
:1033D000D0011124AD5BBA4FE0917C0584E0E89FF9
:1033E000F0011124ED5BFA4F2D913C918081918188
:1033F0002817390719F0109254050CC08091550513
:103400009091560501979093560580935505892B09
:1034100009F4A8C0C0915505D091560580E00E94DE
:103420008B1781E00E948B1780915405882341F00F
:1034300087E595E00E9487168AE695E00E94871648
:103440008091630590916405209176053091770510
:10345000609172057091730577FD6BC040916904AE
:1034600050916A04641775070CF063C082179307C4
:103470006CF537FD5EC04091670450916804841775
:1034800095070CF056C097FF02C080E090E0E091F5
:103490008C04E0937D04E0918D04E0937E04E09140
:1034A0008E04E0937F0490937A0480937904709360
:1034B0007C0460937B04241735070CF4A901481B96
:1034C000590B50938104409380042BC097FD31C069
:1034D00040916704509168042417350754F537FF6D
:1034E00002C080E090E0E0918C04E0937D04E091E4
:1034F0008D04E0937E04E0918E04E0937F0430938A
:103500007A042093790470937C0460937B044817B9
:1035100059070CF4CA01821B930B9093810480938A
:103520008004109283041092820486E694E00E9444
:10353000831F87E595E00E948716811104C080E013
:103540000E948B17F6CF8AE695E00E9487168111BC
:1035500004C081E00E948B17F6CF21971C161D0630
:103560000CF46ECFDF91CF911F910F91FF90EF90F0
:10357000DF90CF90BF90AF909F908F900895E2E63C
:10358000F4E022A5238F23A5248F24A5258F908FD7
:10359000878B728F618F578F468F81E090E091A368
:1035A00080A386E694E00C94831F2F923F924F9263
:1035B0005F926F927F928F929F92AF92BF92CF92C3
:1035C000DF92EF92FF920F931F93CF93DF9300D080
:1035D00000D0CDB7DEB74C015B015C834B83890122
:1035E0006B018FEFC81AD80A3901661A770A1A01D7
:1035F000280C391CA601B301C1010E94BF1A740135
:103600009FEFE91AF90A2801481859082B813C81D3
:103610002A0D3B1DA701B201C90129833A830E94EB
:10362000BF1A8B819C81881999094C01A601B301AD
:103630000E94BF1A8B819C818A199B095C01A7019A
:10364000B2010E94BF1AA601B801C1010E94BF1AAF
:10365000A701B80129813A81C9010E94BF1AA601B8
:10366000B801C4010E94BF1AA701B801C5010F909B
:103670000F900F900F90DF91CF911F910F91FF90BE
:10368000EF90DF90CF90BF90AF909F908F907F9002
:103690006F905F904F903F902F900C94BF1A6F9255
:1036A0007F928F929F92AF92BF92CF92DF92EF92D2
:1036B000FF920F931F93CF93DF933C014B019B012C
:1036C000AC0167E070E080E090E00E94D51ACC2465
:1036D000C394D12CE12CF12C07E010E092EFA92E3D
:1036E000BB24BA94CAEFDFEF8FEFE81AF80A82E042
:1036F000C80ED11CCC0DDD1D9401A301B801C7017A
:103700000E94D51AE016F10654F4D7FDEDCF015012
:10371000110982E0A80EB11CCA0DDB1DE5CFDF91B7
:10372000CF911F910F91FF90EF90DF90CF90BF90BE
:10373000AF909F908F907F906F90089581E090E080
:1037400008956C30710559F06731710589F4DC0119
:103750001796ED91FC91189767E170E00994DC01F0
:10376000A45ABF4F88E0FA0101900D928A95E1F7C3
:1037700081E090E00895EF92FF920F931F93CF9313
:10378000DF937C01EA018A01060F171FC017D107DA
:1037900081F0FE01449150E0D7015196ED91FC91EA
:1037A000529720E030E060E170E0C7010995219672
:1037B000EDCFDF91CF911F910F91FF90EF90089582
:1037C000AB01DC015196ED91FC91529720E030E085
:1037D0006CE070E009940F931F93CF93DF938C01FB
:1037E000EB01209739F068EE73E0C8010E94E01BFE
:1037F0002197F7CFDF91CF911F910F9108956F928D
:103800007F928F929F92AF92BF92CF92DF92EF9270
:10381000FF920F931F93CF93DF938C01EB016C0109
:1038200088ECC80ED11C66246394FE016491E62ED8
:10383000E2942FE0E222F62FFF707F2E8E2D90E093
:10384000FC013197EF30F10508F0CCC0E959FF4F8A
:103850000C944D3C4E018FEF881A980AD6016C915A
:1038600066956170C8010E94FD0EF12CA401B7019C
:10387000C8010E94BB1BA72CB12C772069F08E0CCD
:103880009F1CF60160816170C8010E94FD0EA401B9
:10389000B501C8010E94BB1BFFEFEF1AFF0AEA0C3B
:1038A000FB1C12C0D6016C916170C8010E94FD0E14
:1038B000AE014F5F5F4FE72CF12CB701C8010E94AA
:1038C000BB1BBFEFEB1AFB0ACE0DDF1DAECFF6011F
:1038D0006081669561706625C8010E94FD0EE72C27
:1038E000F12C772039F0AE014F5F5F4FB701C8016F
:1038F0000E94BB1BFFEFEF1AFF0AE6CFFE013196D5
:10390000E491672D70E0762F66276E0F711DC80158
:103910000E94EB1B0CC0FE013196E491672D70E014
:10392000762F66276E0F711DC8010E94E01B22963C
:103930007CCFFE013196E4903196F4902396D60127
:103940006C916170C8010E94FD0EF8014389548991
:1039500002C0559547957A94E2F74E21E42FEF295E
:103960004E2F50E0D8011BC0FE013196E4903196F5
:10397000F4902396F60160816170C8010E94FD0EEB
:10398000D80155964D915C91569702C05595479533
:103990007A94E2F74E21E42FEF294E2F50E0519612
:1039A000ED91FC91529720E030E060E170E0C801B9
:1039B00009953BCF872D86958695813059F030F05B
:1039C000833071F46370F60160830AC061702DE08A
:1039D00044E003C061702EE042E0C8010E94B10ED5
:1039E000219623CFDF91CF911F910F91FF90EF9000
:1039F000DF90CF90BF90AF909F908F907F906F900F
:103A000008954F925F926F927F928F929F92AF92A2
:103A1000BF92CF92DF92EF92FF920F931F93CF93BB
:103A2000DF9300D01F92CDB7DEB7FC01673171057F
:103A300009F028C1828D938D7C0121E0E21AF10802
:103A40003701F7FC3C01759467946F0189E2C80E59
:103A5000D11C9F012D5C3F4F2F01ADE54A0E511C3B
:103A6000AA24A394B12C88248A94982CD6010D9171
:103A70006D0114974C91D9014C9310E0041B11096E
:103A800014961C930E9313971896FC92EE92179728
:103A90001296BC92AE921197C801B7010E94173CD2
:103AA000D90116967C936E93159717FF0BC011954D
:103AB0000195110914961C930E93139712969C92DC
:103AC0008E921197D90113968D919C911497B701FD
:103AD0000E94173CD9011A969C938E9319971C96B5
:103AE0007C926E921B9711974C93225F3F4F241547
:103AF000350509F0BBCF8F01CF010E94310F892B13
:103B000009F4C0C0F801C68CD78C7C2CF296580101
:103B10002CE5A20EB11C9E2E8F2E4681749E402D48
:103B200011244083E084F18482859385C89EB0018E
:103B3000C99E700DD89E700D1124C701F7FC019627
:103B40009C0135952795260F371F8281938197FD1C
:103B500006C0C901B7010E94173C460F05C0C90144
:103B6000B7010E94173C461B4083C901B7010E9460
:103B7000173C9587848790818181890F80833E9649
:103B8000EA15FB0551F6D8015C968D919C915D97E5
:103B90008130910531F462EB78E0C8010E94FF1B8F
:103BA00019C08230910509F052C0D8015396ED90AA
:103BB000FC9054978FEE90E08E199F0954969C9339
:103BC0008E93539761E978E0C8010E94FF1BF801CA
:103BD000F48AE38AE12CF12C6801F0E4CF0ED11CC9
:103BE00058012EE4A20EB11CF801828D938DE816C7
:103BF000F90634F5D801D2968C918983F60180813B
:103C00008A83D5018C918B83D8015196ED91FC91DB
:103C100052979E012F5F3F4F41E050E063E170E01B
:103C2000C8010995892D982D0E944010C6010E9457
:103C30004010C5010E944010BFEFEB1AFB0AD4CF21
:103C40002EE042E061E0C8010E94B10E1BC0892B4A
:103C500019F463ED78E0A1CFD8015596ED90FC9072
:103C600056978FE391E08E199F0956969C938E93F9
:103C700055976DE678E0C8010E94FF1BF801F68AAF
:103C8000E58AA8CF81E090E00F900F900F90DF9130
:103C9000CF911F910F91FF90EF90DF90CF90BF9049
:103CA000AF909F908F907F906F905F904F9008950E
:103CB000EF92FF920F931F93CF93DF9300D000D02A
:103CC000CDB7DEB76F30710509F454C08C01603197
:103CD000710564F46A30710591F06B30710509F07B
:103CE000C9C066E678E00E94FF1BD2C0643171054E
:103CF00009F44DC06531710509F469C0BBC084E6A3
:103D000090E09A83898382E490E09C838B8378019E
:103D100087ECE80EF11CD7018C9183FF0DC0D80110
:103D20005196ED91FC91529720E030E040E050E058
:103D30006BE070E0C8010995F7018081877F80837F
:103D4000F801EA53FF4F1082D8015196ED91FC9192
:103D500052979E012F5F3F4F40E050E06AE070E0D5
:103D6000C8010995009709F495C0F70120812860E2
:103D7000208390C080EF90E0DA0111969C938E939F
:103D800080E491E013969C938E93129781C00E94D9
:103D9000190F892B09F47CC0C8010E94010F892BDF
:103DA00009F476C068E478E0C8010E94FF1BF801BE
:103DB00087898983808D8A83818D8B830188F289AD
:103DC000E02D9E012F5F3F4F41E050E057C00E9421
:103DD000310F892B09F45CC0F801848D958D8130F9
:103DE000910541F08230910559F0892BD1F463EDB2
:103DF00078E002C062EB78E0C8010E94FF1B21C09E
:103E0000E388F4888FEE90E08E199F09948B838B62
:103E100061E978E0C8010E94FF1BF801F48AE38A97
:103E200010C0E588F6888FE391E08E199F09968B84
:103E3000858B6DE678E0C8010E94FF1BF801F68AC9
:103E4000E58AD80157968C915797898358968C911B
:103E500058978A8359968C9159978B835A964D918E
:103E60005C915B975196ED91FC9152979E012F5F6B
:103E70003F4F04C0C8010E94A11B0CC063E170E069
:103E8000C80109952EE042E061E0C8010E94B10E30
:103E900081E090E00F900F900F900F90DF91CF9105
:103EA0001F910F91FF90EF900895CF93DF936B30A8
:103EB000710599F06F30710599F06A307105E1F480
:103EC000EC016AE070E00E94581E0097C9F061EFB3
:103ED00078E0CE010E94FF1B0CC06BE070E00CC0CC
:103EE00080EF90E0FA019183808380E491E09383F6
:103EF000828381E090E004C0DF91CF910C94581E42
:103F0000DF91CF910895AC014D5E5F4FDC011596B6
:103F1000ED91FC91169765E170E00994CF93DF93E2
:103F2000CDB7DEB728970FB6F894DEBF0FBECDBF72
:103F3000DC0111964D915D916D917C9114974D83AB
:103F40005E836F8378871A8219821C821B82159682
:103F5000ED91FC911697AE014F5F5F4F6CE070E002
:103F6000099528960FB6F894DEBF0FBECDBFDF913E
:103F7000CF910895CF93DF93EC01AC014F5F5F4F7A
:103F8000ED81FE816FE070E00995CE01DF91CF9168
:103F90000C948E1FCF93DF93EC01888180FF0BC0C0
:103FA000ED81FE8140E050E06BE070E0CE010995CC
:103FB00088818E7F8883ED81FE8140E050E06AE059
:103FC00070E0CE010995009719F0288121602883BF
:103FD000DF91CF9108951F93CF93DF9382E10E94E9
:103FE000C01411E0892B09F010E081E10E94C01497
:103FF000D1E0892B09F0D0E080E10E94C014C1E03B
:10400000892B09F0C0E083E10E94C01421E0892BD4
:1040100009F020E0112381F0D1110EC0C1110CC0B4
:1040200021110AC0809179038F3FD1F080917903EB
:104030008F5F8093790314C010927903111110C01F
:10404000DD2371F0C1110CC021110AC080917A03E7
:104050008F3FD1F080917A038F5F80937A0314C0F1
:1040600010927A03111110C0D1110EC0CC2361F04F
:1040700021110AC080917E038F3FD1F080917E0391
:104080008F5F80937E0314C010927E03111110C0C5
:10409000D1110EC0C1110CC0222351F080915603E2
:1040A0008F3F41F0809156038F5F8093560302C08B
:1040B0001092560380917903833070F480917A03D3
:1040C000833060F480917E03833050F480915603F6
:1040D000833040F480E007C081E005C082E003C087
:1040E00083E001C084E0DF91CF911F9108952F926A
:1040F0003F924F925F926F927F928F929F92AF9278
:10410000BF92CF92DF92EF92FF920F931F93CF93C4
:10411000DF93CDB7DEB72C970FB6F894DEBF0FBE96
:10412000CDBF8091C7059091C8059A8389839093EC
:10413000C6058093C505E091C305F091C405FC83D5
:10414000EB83F093C205E093C1058091BF05909188
:10415000C0059E838D839093BE058093BD05E0913D
:10416000BB05F091BC05F887EF83F093BA05E093A7
:10417000B9058091B7059091B8059A878987909382
:10418000B6058093B505E091B305F091B405FC87C1
:10419000EB87F093B205E093B1050091AF05109164
:1041A000B0051093AE050093AD052090AB0530909F
:1041B000AC053092AA052092A9058091A70590919F
:1041C000A8059093A6058093A5058091A3059091DD
:1041D000A4059093A2058093A10580919F059091DD
:1041E000A00590939E0580939D0580919B059091DD
:1041F0009C0590939A0580939905809197059091DD
:1042000098059093960580939505809193059091DC
:104210009405909392058093910580918F059091DC
:10422000900590938E0580938D0580918B059091DC
:104230008C0590938A058093890560918503062EED
:10424000000C770B880B990B0E944B3A2BED3FE04B
:1042500049E450E40E941B3B20E030E040EF51E491
:104260000E94A1394B015C0160938505709386051E
:1042700080938705909388052BED3FE049EC5FE341
:104280000E942F396B017C01609381057093820538
:10429000809383059093840560918403062E000C1F
:1042A000770B880B990B0E944B3A2BED3FE049E4CA
:1042B00050E40E941B3B20E030E040EC50E40E94C0
:1042C000A1392BED3FE049EC5FE30E942F392B0130
:1042D0003C0120E030E040E451E4C501B4010E941B
:1042E000A1399B01AC01C301B2010E9430394B01DD
:1042F0005C0160937D0570937E0580937F059093AC
:1043000080052FE135E84BE25FE30E942F392B0156
:104310003C010E949C3920E030E048E851EC0E94CA
:104320001B3B0E94133A60567F4F7093A005609329
:104330009F05C301B2010E94883B20E030E048E8BD
:1043400051EC0E941B3B0E94133A68587F4F7093B8
:104350009C0560939B052DEC3CEC4CEC5DE3C501AA
:10436000B4010E9430392B013C010E949C3920E0AD
:1043700030E04CE852E40E941B3B0E94133A605626
:104380007F4F7093A8056093A705C301B2010E94F7
:10439000883B20E030E04CE852E40E941B3B0E9446
:1043A000133A68587F4F7093A4056093A3052FE1DB
:1043B00035E84BE25FE3C501B4010E9430392B01BF
:1043C0003C010E949C3920E030E048E851EC0E941A
:1043D0001B3B0E94133A60567F4F70939805609381
:1043E0009705C301B2010E94883B20E030E048E815
:1043F00051EC0E941B3B0E94133A68587F4F709308
:104400009405609393052DEC3CEC4CEC5DE3C50109
:10441000B4010E942F394B015C010E949C3920E0BD
:1044200030E04CE852E40E941B3B0E94133A605675
:104430007F4F7093900560938F05C501B4010E9472
:10444000883B20E030E04CE852E40E941B3B0E9495
:10445000133A68587F4F70938C0560938B052DEC51
:104460003CEC4CE05FE3C701B6010E942F394B01E1
:104470005C010E949C3920E030E040E751EC0E9452
:104480001B3B0E94133A60567F4F7093C0056093A8
:10449000BF05C501B4010E94883B20E030E040E741
:1044A00051EC0E941B3B0E94133A68587F4F709357
:1044B000BC056093BB052DEC3CEC4CE45DE3C7010F
:1044C000B6010E9430394B015C010E949C3920E00A
:1044D00030E04EEB52E40E941B3B0E94133A6056C0
:1044E0007F4F7093C8056093C705C501B4010E9452
:1044F000883B20E030E04EEB52E40E941B3B0E94E0
:10450000133A68587F4F7093C4056093C3052DEC30
:104510003CEC4CE05FE3C701B6010E9430394B012F
:104520005C010E949C3920E030E040E751EC0E94A1
:104530001B3B0E94133A60567F4F7093B8056093FF
:10454000B705C501B4010E94883B20E030E040E798
:1045500051EC0E941B3B0E94133A68587F4F7093A6
:10456000B4056093B3052DEC3CEC4CE45DE3C7016E
:10457000B6010E942F396B017C010E949C3920E01A
:1045800030E04EEB52E40E941B3B0E94133A60560F
:104590007F4F7093B0056093AF05C701B6010E94CD
:1045A000883B20E030E04EEB52E40E941B3B0E942F
:1045B000133A68587F4F7093AC056093AB0582E661
:1045C000682E84E0782EF30112A613A614A6AB84FD
:1045D000BC84C984DA8471012B813C8149815A8170
:1045E0006F8178858D819E810E948519A0909105AB
:1045F000B0909205C0909505D0909605E090890501
:10460000F0908A0500918D0510918E052091A105ED
:104610003091A2054091A5055091A605609199059C
:1046200070919A0580919D0590919E050E94851933
:1046300099249A94F30192A613A614A6A090930528
:10464000B0909405C0909705D0909805E0908B05A8
:10465000F0908C0500918F05109190052091A30595
:104660003091A4054091A7055091A80560919B0544
:1046700070919C0580919F059091A0050E948519DD
:10468000F30112A693A614A6A090B305B090B405AA
:10469000C090B705D090B805E090AB05F090AC05A0
:1046A0000091AF051091B0052091C3053091C4056C
:1046B0004091C7055091C8056091BB057091BC053C
:1046C0008091BF059091C0050E9485192C960FB668
:1046D000F894DEBF0FBECDBFDF91CF911F910F9138
:1046E000FF90EF90DF90CF90BF90AF909F908F9012
:1046F0007F906F905F904F903F902F900895CF9252
:10470000DF92EF92FF92CF93DF936C01990FEE0847
:10471000FF08F7FE1FC0E0916204F091630401906E
:10472000F081E02D6DE282E694E00995EC016627C8
:104730007727CB016C197D098E099F094AE00E94F9
:1047400036198C0F9D1FDF91CF91FF90EF90DF9076
:10475000CF9008954AE0C701B601DF91CF91FF9055
:10476000EF90DF90CF900C943619AF92BF92CF921A
:10477000DF92EF92FF920F931F93CF93DF937C0111
:104780005B016A018901C2E6D4E08AA58B8F8BA503
:104790008C8F8CA58D8FF88EEF8A7A8F698F5F8FC3
:1047A0004E8F19A218A286E694E00E94831FA801EA
:1047B000B501C7010E94BF1AC7018C0D9D1DA8013C
:1047C000B50101970E94BF1A0A0D1B1D8AA58B8F88
:1047D0008BA58C8F8CA58D8FF88EEF8A01501109D7
:1047E0001A8F098FDF8ECE8E19A218A286E694E06A
:1047F000DF91CF911F910F91FF90EF90DF90CF90BD
:10480000BF90AF900C94831FCF93DF93CDB7DEB7EB
:1048100069970FB6F894DEBF0FBECDBF789484B50C
:10482000826084BD84B5816084BD85B5826085BDAC
:1048300085B5816085BD80916E00816080936E003A
:10484000109281008091810082608093810080912C
:1048500081008160809381008091800081608093DD
:1048600080008091B10084608093B1008091B0009D
:1048700081608093B00080917A00846080937A0098
:1048800080917A00826080937A0080917A008E7F96
:1048900080937A0080917A00806880937A001092E9
:1048A000C10062E082E10E94A01562E081E10E9405
:1048B000A01561E089E00E94A01562E080E10E94FD
:1048C000A01561E08EE00E94A01562E08FE00E94DA
:1048D000A01562E08AE00E94A01562E083E10E94D8
:1048E000A01511E010930E0280E1809381001092D8
:1048F000800010934C0380E797E190934B038093E3
:104900004A03909387008093860081E18093810021
:1049100061E089E00E94A01580918000806880930A
:10492000800080914A0390914B03A0E0B0E0B695DF
:10493000A79597958795909389008093880080919B
:104940004C0380618093810082ED94E09093490351
:104950008093480310936F00809131059091320548
:1049600040912F0550913005209166042E7F2093B1
:1049700066041092700410926F0421E030E03093CE
:104980008704209386041092CB041092CA041093DB
:10499000D90410922C0510922D0510922E05009727
:1049A00011F48EE99BE190936E0480936D04509313
:1049B0006C0440936B048FE69DE0909378048093A1
:1049C000770486E694E00E94B61686E694E00E949C
:1049D000CA1F86E694E00E94BA1F1092D9040E9472
:1049E0001A1980916F0490917004009741F0909390
:1049F0006C0480936B041092700410926F0486E62E
:104A000094E00E94BA1F86E694E00E948E1F809177
:104A10006B0490916C049093700480936F048DE903
:104A200093E190936C0480936B0486E694E00E947B
:104A3000BA1F86E694E00E948E1F60E080913A05DE
:104A40000E94E91461E0809138050E94E91481E830
:104A50000E9466180E943C18182F60E0809138056B
:104A60000E94E914612F6F7780E00E94BE1860E019
:104A700087E00E94BE181092590310925A0388E0F2
:104A800080935B0300E010E0C8010E94A510F801CC
:104A9000E75AFC4F83830F5F1F4F0B311105A1F7BE
:104AA00080E090E028E0FC01EE0FFF1FDF01A80F7F
:104AB000B91FA75ABC4F3C91383110F00C943730D5
:104AC00011963C9111973C3310F00C9437301296AC
:104AD0003C91393010F00C94373001968A309105B2
:104AE00011F780E092E00E94A51080935503809119
:104AF0005503853038F01092550360E080E092E075
:104B00000E94A31082E092E00E94A51090E0909392
:104B10008E0380938D0380918D0390918E03049773
:104B20002CF060E080E092E00E94A31008EE13E019
:104B30008DE4E82E83E0F82EC8010E94A510D7016D
:104B40008D937D010F5F1F4F003FB3E01B07A1F75F
:104B500020914D0330914E0380914F03909150036B
:104B6000809590952817390741F081E0809355038F
:104B700061E080E092E00E94A31020915103309107
:104B80005203809153039091540380959095281778
:104B9000390741F081E08093550361E080E092E0C5
:104BA0000E94A31081E092E00E94A51091E0811183
:104BB00001C090E0909358030E94260B8091CA0494
:104BC0009091CB048C53934009F4A1C0ECE3F3E043
:104BD000F093CB04E093CA04E491E093DB04EDE3AB
:104BE000F3E0E491E093DC04EEE3F3E0E491E0939E
:104BF000DD04EFE3F3E0E491E093DE04E0E4F3E0CE
:104C0000E491E093DF04E1E4F3E0E491E093E00475
:104C1000E2E4F3E0E491E093E104E3E4F3E0E4911F
:104C2000E093E204E4E4F3E0E491E093E304E5E4F8
:104C3000F3E0E491E093E404E6E4F3E0E491E0934C
:104C4000E504E7E4F3E0E491E093E604E8E4F3E06C
:104C5000E491E093E704E9E4F3E0E491E093E8040D
:104C6000EAE4F3E0E491E093E904EBE4F3E0E491B7
:104C7000E093EA04ECE4F3E0E491E093EB0481E1F7
:104C80000E94B1189093ED048093EC0483E10E949C
:104C9000B1189093EF048093EE048091CA04909130
:104CA000CB04892BA1F18091E8048093F604409114
:104CB000E9044093F7049091F504992341F1913070
:104CC00069F49091EA04891714F49093F6048091A2
:104CD000EB048417E4F48093F70419C03091E504E1
:104CE0002091E704082E000C990B622F022E000C75
:104CF000770B630F711D37FD7A95861797071CF4A4
:104D0000320F3093F604241714F42093F704E09143
:104D1000CD03F091CE0382E08083E091C903F0914E
:104D2000CA031082E091CB03F091CC0385E080832D
:104D30001092D503E091D103F091D20386E08083F5
:104D4000E091CF03F091D003808180618083E09176
:104D5000CF03F091D003808188608083E091CF03FE
:104D6000F091D003808180688083E091CF03F0913F
:104D7000D00380818F7D80836AE071E08DEB93E0CA
:104D80000E942B148DEB93E00E94641481E08093C9
:104D90000A0280917B038E7F80937B0381E00E94D7
:104DA000DB088FEF80930B02AE014F5F5F4F5E8B8E
:104DB0004D8BCE014996988F8F8BA3E58A2E912C2F
:104DC000BCEA6B2E712C109186038091940381179D
:104DD00029F081E0809393030E94590A8091850312
:104DE00090919203981719F091E09093910310938A
:104DF0009403809392038091840380939003809125
:104E0000830380938F030E94260B80918D039091E2
:104E10008E0381309105C9F01CF4892B51F011C02B
:104E20008230910521F0039761F492E00FC091E088
:104E30000DC08091840363E00E94093C933030F000
:104E400004C010928E0310928D0390E020910B020B
:104E5000492F50E0022E000C330B4217530739F054
:104E6000998F0E941A1981E080930A02998D80918E
:104E70000B02911116C1882329F081E080930A0268
:104E800010920B028091860390919403891304C0C1
:104E900090910A029923C1F165E00E94093C9111A9
:104EA00033C08C3088F540918503242F47FF02C022
:104EB00021E0240F2595042E000C550B220F330BF7
:104EC0004217530739F494E690938C0490938D0421
:104ED0009FEF05C09FEF90938C0490938D04909367
:104EE0008E0490E0880F991FFC01E95DFD4F608101
:104EF000718168587F4FFC01E15FFD4F8081918196
:104F000080569F4F0E944F1B909185038091920382
:104F1000981303C080910A0281110E94772090911A
:104F2000840380919003981305C080910A0288231E
:104F300009F455C077E2E72E72E0F72E0FE012E099
:104F4000C12CD12CBB24BA94E4E6AE2E209186036A
:104F5000022E000C330B80918503C216D3069CF4FD
:104F6000282F87FF02C021E0280F2595082E000C6E
:104F7000990B220F330B8217930799F4A0928C049C
:104F8000A0928D0412C0282F87FF02C021E0280FB5
:104F90002595082E000C990B220F330B82179307CF
:104FA00069F7B0928C04B0928D04B0928E04D70150
:104FB0006D917D917D01F801819191918F016858EA
:104FC0007F4F80569F4F0E944F1BF5E0CF0ED11CA4
:104FD0002CE3C216D10409F0B9CF0E9477208FEFDD
:104FE00080938C0480938D0480938E040AE010E0FB
:104FF000109334050093330567EDE62EF12CF09203
:105000003605E092350580918303082E000C990B3C
:105010000E947F2310933405009333050DEE10E0BA
:10502000109336050093350520918203022E000C63
:10503000330B215031094DE0429FC001439F900D39
:1050400011248B569E4F0E94801988E191E0909325
:10505000340580933305F0923605E0923505809152
:105060008003909181030E947F238BEE90E09093C8
:105070003405809333051093360500933505209150
:105080007F03022E000C330B215031094AE0429F6E
:10509000C001439F900D1124835E9E4F0E94801992
:1050A000CFC3913009F075C1813021F090930A028D
:1050B00090930B02209185039091920380910A02B4
:1050C000291303C0882309F4A2C0882359F08FEF65
:1050D0008093040180930301809302018093010176
:1050E00080930001809184036AE00E94093C182F9C
:1050F00080910401082E000C990B212F30E08217BB
:10510000930751F02FEF3FEF4FEF68E070E0812FF2
:105110000E94F80510930401809184036AE00E94C4
:10512000093C20910301022E000C330B492F50E063
:105130002417350761F02DEF30E040E060E570E0C6
:10514000892F998F0E94F805998D909303011092F1
:105150008C0410928D0410928E0424E530E049E115
:1051600050E06EE170E086E990E00E94DE188FEF7B
:1051700080938C0480938D0480938E042EE030E025
:105180004EE050E06AE370E086E990E00E94DE18AD
:105190002EE030E04EE050E066E570E086E990E019
:1051A0000E94DE18809185036AE00E94093C182F56
:1051B00080910201082E000C990B212F30E08217FC
:1051C000930751F020E03FEF40E064EB70E0812F67
:1051D0000E94F80510930201809185036AE00E9405
:1051E000093C20910101022E000C330B492F50E0A5
:1051F0002417350761F02FE73FE74FEF6DEF70E0C1
:10520000892F998F0E94F805998D90930101209123
:105210008503822F27FF02C081E0820F8595022E31
:10522000000C330B880F990B2817390719F4F3E397
:10523000EFEF02C0FFEFEFE780919303882309F4BB
:1052400052C08091860365E00E94093C91114BC0D9
:105250008F5F8C3008F080E090E0880F991FDC01B0
:10526000A951BD4F4D905C90DC01A153BD4F6D9194
:105270007C91DC01A954BD4F4D915C91DC01A1569C
:10528000BD4F2D913C91DC01A957BD4FCD90DC90D5
:10529000DC01A159BD4FAD90BC90DC01A95ABD4FB6
:1052A0000D911C91DC01A15CBD4FED90FC90E09351
:1052B0008C04E0938D04F0938E048EEBA80EB11C49
:1052C00096E4C90ED11CAEEBEA0EF11C0A5B1F4F2F
:1052D00022543F4F4A5B5F4F62547F4FC2018A5B4B
:1052E0009F4F0E9485198FEF80938C0480938D04CB
:1052F00080938E0400EA10E0109334050093330588
:1053000085EA90E09093360580933505F09083030D
:1053100020918203022E000C330B215031094DE005
:10532000429FC001439F900D11248B569E4F0E94B7
:10533000801981E493E00E9480198F2DFF0C990B56
:105340000E947F23109334050093330589EB90E08E
:105350009093360580933505009180031091810369
:1053600020917F03022E000C330B215031094AE0BB
:10537000429FC001439F900D1124835E9E4F0E9467
:10538000801981E493E00E948019C8010E947F2364
:1053900057C2823031F081E080930A0282E080932C
:1053A0000B0280910A02882309F44FC08FEF80938B
:1053B0008C0480938D0480938E048EE190E0909312
:1053C00034058093330584EB90E090933605809309
:1053D0003505E0908003F090810380917F03082ED3
:1053E000000C990B01972AE0289F8001299F100D3E
:1053F0001124035E1E4FD090830320918203022E5E
:10540000000C330B215031094DE0429FC001439FF6
:10541000900D11248B569E4F0E94801981E493E0D9
:105420000E9480198D2DDD0C990B0E947F2381E451
:1054300093E00E948019C8010E94801981E493E0E2
:105440000E948019C7010E947F23809193038823C3
:1054500009F44AC08091860380FD08C010928C0434
:105460008FEF80938D0480938E0407C08FEF80931D
:105470008C0410928D0410928E0466E470E080EA31
:1054800090E00E944F1B8091860380FD08C08FEF43
:1054900080938C0410928D0410928E0407C0109299
:1054A0008C048FEF80938D0480938E046EE670E001
:1054B00080EA90E00E944F1B809186039FEF9093BB
:1054C0008C0490938D0490938E04B5E08B02C00100
:1054D000112429E030E044E050E069EC70E00696E9
:1054E0000E94DE181092930390919203809185039D
:1054F000981305C080910A02882309F4A1C1109273
:105500008C0410928D0410928E042BE030E04EE259
:1055100051E067EC70E08BE090E00E94DE188FEFC6
:1055200080938C0480938D0480938E042BE030E074
:105530004EE251E068EC70E08AE090E00E94B52312
:105540000AE010E049E050E069EC70E0C8010E9418
:10555000BF1A0B5F1F4F0633E1E01E0799F740901B
:105560000A0284E1AD89BE891D928A95E9F788E037
:105570008A8393E39B838FEF8C8329E92D8320E536
:105580002F8388879A8794EB9C878D879CEC9E87D6
:1055900098EF998B9FE79A8B9B8B8C8B80918403E0
:1055A0002AE0622F0E94093C89839E8380918503B3
:1055B000622F0E94093C8B87988B45E0C42E41E006
:1055C000D42EFE0135967F01F7013497E08141101A
:1055D00005C0D6018C91E81709F426C1D601EC93D9
:1055E000D70113970C9110E011965C901196AC9036
:1055F000D701BC9010928C0410928D0410928E04EE
:105600008E2F90E08A30910508F00EC1FC01EC5C11
:10561000FF4F0C944D3CB80187E40E94A7105092B4
:105620008C04A0928D04B0928E04B80181E40E9493
:10563000A710B80182E40E94A710B80183E40E9479
:10564000A710B80184E40E94A710B80185E40E9465
:10565000A710B80186E4E6C0B80181E40E94A71053
:10566000B80184E40E94A710B80185E40E94A71045
:10567000B80186E40E94A710B80187E40E94A71031
:1056800050928C04A0928D04B0928E048BC0B8010D
:1056900083E40E94A710B80186E40E94A7105092EC
:1056A0008C04A0928D04B0928E04B80181E40E9413
:1056B000A710B80182E40E94A710B80184E40E94F8
:1056C000A710B80185E4AAC0B80185E40E94A7101C
:1056D000B80186E40E94A71050928C04A0928D0419
:1056E000B0928E04B80181E40E94A710B80182E450
:1056F0000E94A710B80183E40E94A710B80184E4B7
:105700008DC0B80181E40E94A710B80184E40E9412
:10571000A710B80185E40E94A71050928C04A092B3
:105720008D04B0928E04B80182E40E94A710B801E3
:1057300083E470C0B80182E40E94A710B80185E438
:105740000E94A71050928C04A0928D04B0928E04F7
:10575000B80181E457C0B80182E40E94A7105092BA
:105760008C04A0928D04B0928E04B80181E42DC007
:10577000B80184E40E94A710B80185E40E94A71034
:10578000B80186E40E94A710B80187E40E94A71020
:1057900050928C04A0928D04B0928E04B80181E4E2
:1057A0000E94A710B80182E40E94A710B80183E408
:1057B00039C050928C04A0928D04B0928E04B8012E
:1057C00081E40E94A710B80182E40E94A710B801EA
:1057D00083E40E94A710B80184E40E94A710B801D6
:1057E00085E418C0B80185E40E94A71050928C048B
:1057F000A0928D04B0928E04B80181E40E94A7109B
:10580000B80182E40E94A710B80183E40E94A710A7
:10581000B80184E40E94A710B80186E40E94A71092
:10582000B80187E40E94A710BFEFCB1ADB0AE5E0BE
:10583000EE0EF11C4F89588DE416F50609F0C4CE22
:105840008091910310910A02812B0E94DB0888232A
:1058500011F081E001C0812F0E94C807809191035F
:1058600081111092910310920A0280917E0383307D
:1058700008F42BC280917B038E7F80937B03809101
:105880007B038D7F80937B0380917B038770809364
:105890007B0310927C0310927D030E941A190E94D0
:1058A0001F120E940D1210E0812F0E948D111F5FA8
:1058B0001C30D1F780915A048093840380915B045B
:1058C0008093850300EA10E01093340500933305BC
:1058D00086E490E0909336058093350580918003AF
:1058E000909181030E947F23109334050093330528
:1058F00085E590E0909336058093350520917F03F0
:10590000022E000C330B215031094AE0429FC001A6
:10591000439F900D1124835E9E4F0E948019109327
:1059200034050093330584E690E090933605809328
:10593000350520918203022E000C330B21503109D2
:105940004DE0429FC001439F900D11248B569E4F06
:105950000E948019109334050093330583E790E08B
:10596000909336058093350580918303082E000CB3
:10597000990B0E947F23109334050093330582E82E
:1059800090E0909336058093350580918403082E2E
:10599000000C990B0E947F2310933405009333056C
:1059A00081E990E0909336058093350580918503D9
:1059B000082E000C990B0E947F231093340500934E
:1059C00033058FEA90E090933605809335058091FA
:1059D000550355E0859FC0011124875F9E4F0E94AB
:1059E000801910933405009333058EEB90E090936B
:1059F00036058093350560914D0370914E0380E02C
:105A000090E04AE00E943619109334050093330564
:105A1000ADECB0E0B0933605A0933505609151032D
:105A20007091520380E090E04AE00E9436190FEF37
:105A30001FEFDD24DA9421EEC22E36E4E32EF12CA2
:105A400010928C0410928D04D0928E0482E00E94F9
:105A50008D1180918003909181030E947E1190931B
:105A60008103809380038017910781F162E370E0E6
:105A700080E090E00E94DC1510928C0410928D045E
:105A800010928E042AE030E048E250E06CE370E0CF
:105A900080EA90E00E94DE1810928C04C0928D047F
:105AA00010928E0480EA90E0909334058093330541
:105AB000F0923605E0923505809180039091810344
:105AC0000E947F23009180031091810380915703EE
:105AD000833009F4D5C280915703843009F0B0CFE8
